{
  "_format": "hh3-artifact-1",
  "contractName": "Marketplace",
  "sourceName": "contracts/Marketplace.sol",
  "abi": [
    {
      "inputs": [
        {
          "internalType": "uint256",
          "name": "_feePercent",
          "type": "uint256"
        }
      ],
      "stateMutability": "nonpayable",
      "type": "constructor"
    },
    {
      "anonymous": false,
      "inputs": [
        {
          "indexed": false,
          "internalType": "uint256",
          "name": "itemId",
          "type": "uint256"
        },
        {
          "indexed": true,
          "internalType": "address",
          "name": "nft",
          "type": "address"
        },
        {
          "indexed": false,
          "internalType": "uint256",
          "name": "tokenId",
          "type": "uint256"
        },
        {
          "indexed": false,
          "internalType": "uint256",
          "name": "price",
          "type": "uint256"
        },
        {
          "indexed": true,
          "internalType": "address",
          "name": "seller",
          "type": "address"
        },
        {
          "indexed": true,
          "internalType": "address",
          "name": "buyer",
          "type": "address"
        }
      ],
      "name": "Bought",
      "type": "event"
    },
    {
      "anonymous": false,
      "inputs": [
        {
          "indexed": false,
          "internalType": "uint256",
          "name": "itemId",
          "type": "uint256"
        },
        {
          "indexed": true,
          "internalType": "address",
          "name": "nft",
          "type": "address"
        },
        {
          "indexed": false,
          "internalType": "uint256",
          "name": "tokenId",
          "type": "uint256"
        },
        {
          "indexed": false,
          "internalType": "uint256",
          "name": "price",
          "type": "uint256"
        },
        {
          "indexed": true,
          "internalType": "address",
          "name": "seller",
          "type": "address"
        }
      ],
      "name": "Offered",
      "type": "event"
    },
    {
      "inputs": [],
      "name": "feeAccount",
      "outputs": [
        {
          "internalType": "address payable",
          "name": "",
          "type": "address"
        }
      ],
      "stateMutability": "view",
      "type": "function"
    },
    {
      "inputs": [],
      "name": "feePercent",
      "outputs": [
        {
          "internalType": "uint256",
          "name": "",
          "type": "uint256"
        }
      ],
      "stateMutability": "view",
      "type": "function"
    },
    {
      "inputs": [
        {
          "internalType": "uint256",
          "name": "_itemId",
          "type": "uint256"
        }
      ],
      "name": "getItem",
      "outputs": [
        {
          "internalType": "uint256",
          "name": "itemId",
          "type": "uint256"
        },
        {
          "internalType": "address",
          "name": "nft",
          "type": "address"
        },
        {
          "internalType": "uint256",
          "name": "tokenId",
          "type": "uint256"
        },
        {
          "internalType": "uint256",
          "name": "price",
          "type": "uint256"
        },
        {
          "internalType": "address",
          "name": "seller",
          "type": "address"
        },
        {
          "internalType": "address",
          "name": "buyer",
          "type": "address"
        },
        {
          "internalType": "bool",
          "name": "sold",
          "type": "bool"
        },
        {
          "internalType": "uint256",
          "name": "boughtAt",
          "type": "uint256"
        },
        {
          "internalType": "string",
          "name": "tokenURI",
          "type": "string"
        },
        {
          "components": [
            {
              "internalType": "uint256",
              "name": "itemId",
              "type": "uint256"
            },
            {
              "internalType": "address",
              "name": "seller",
              "type": "address"
            },
            {
              "internalType": "address",
              "name": "buyer",
              "type": "address"
            },
            {
              "internalType": "uint256",
              "name": "price",
              "type": "uint256"
            },
            {
              "internalType": "uint256",
              "name": "boughtAt",
              "type": "uint256"
            },
            {
              "internalType": "bool",
              "name": "sold",
              "type": "bool"
            }
          ],
          "internalType": "struct Marketplace.Listing[]",
          "name": "history",
          "type": "tuple[]"
        }
      ],
      "stateMutability": "view",
      "type": "function"
    },
    {
      "inputs": [
        {
          "internalType": "uint256",
          "name": "_itemId",
          "type": "uint256"
        }
      ],
      "name": "getTotalPrice",
      "outputs": [
        {
          "internalType": "uint256",
          "name": "",
          "type": "uint256"
        }
      ],
      "stateMutability": "view",
      "type": "function"
    },
    {
      "inputs": [],
      "name": "itemCount",
      "outputs": [
        {
          "internalType": "uint256",
          "name": "",
          "type": "uint256"
        }
      ],
      "stateMutability": "view",
      "type": "function"
    },
    {
      "inputs": [
        {
          "internalType": "uint256",
          "name": "",
          "type": "uint256"
        }
      ],
      "name": "items",
      "outputs": [
        {
          "internalType": "uint256",
          "name": "itemId",
          "type": "uint256"
        },
        {
          "internalType": "contract IERC721",
          "name": "nft",
          "type": "address"
        },
        {
          "internalType": "uint256",
          "name": "tokenId",
          "type": "uint256"
        },
        {
          "internalType": "uint256",
          "name": "price",
          "type": "uint256"
        },
        {
          "internalType": "address payable",
          "name": "seller",
          "type": "address"
        },
        {
          "internalType": "address payable",
          "name": "buyer",
          "type": "address"
        },
        {
          "internalType": "bool",
          "name": "sold",
          "type": "bool"
        },
        {
          "internalType": "uint256",
          "name": "boughtAt",
          "type": "uint256"
        }
      ],
      "stateMutability": "view",
      "type": "function"
    },
    {
      "inputs": [
        {
          "internalType": "contract IERC721",
          "name": "_nft",
          "type": "address"
        },
        {
          "internalType": "uint256",
          "name": "_tokenId",
          "type": "uint256"
        },
        {
          "internalType": "uint256",
          "name": "_price",
          "type": "uint256"
        }
      ],
      "name": "makeItem",
      "outputs": [],
      "stateMutability": "nonpayable",
      "type": "function"
    },
    {
      "inputs": [
        {
          "internalType": "uint256",
          "name": "_itemId",
          "type": "uint256"
        }
      ],
      "name": "purchaseItem",
      "outputs": [],
      "stateMutability": "payable",
      "type": "function"
    },
    {
      "inputs": [
        {
          "internalType": "uint256",
          "name": "",
          "type": "uint256"
        },
        {
          "internalType": "uint256",
          "name": "",
          "type": "uint256"
        }
      ],
      "name": "tokenHistory",
      "outputs": [
        {
          "internalType": "uint256",
          "name": "itemId",
          "type": "uint256"
        },
        {
          "internalType": "address",
          "name": "seller",
          "type": "address"
        },
        {
          "internalType": "address",
          "name": "buyer",
          "type": "address"
        },
        {
          "internalType": "uint256",
          "name": "price",
          "type": "uint256"
        },
        {
          "internalType": "uint256",
          "name": "boughtAt",
          "type": "uint256"
        },
        {
          "internalType": "bool",
          "name": "sold",
          "type": "bool"
        }
      ],
      "stateMutability": "view",
      "type": "function"
    }
  ],
  "bytecode": "0x60c06040523480156200001157600080fd5b5060405162001e9c38038062001e9c8339818101604052810190620000379190620000c2565b60016000819055503373ffffffffffffffffffffffffffffffffffffffff1660808173ffffffffffffffffffffffffffffffffffffffff16815250508060a0818152505050620000f4565b600080fd5b6000819050919050565b6200009c8162000087565b8114620000a857600080fd5b50565b600081519050620000bc8162000091565b92915050565b600060208284031215620000db57620000da62000082565b5b6000620000eb84828501620000ab565b91505092915050565b60805160a051611d7462000128600039600081816106b9015261079601526000818161068f01526109760152611d746000f3fe6080604052600436106100865760003560e01c80637fd6f15c116100595780637fd6f15c14610169578063bfb231d214610194578063ca7dd375146101d8578063d38ea5bf14610215578063fa00afc71461023157610086565b80631f95f53f1461008b5780633129e773146100cd57806365e17c9d146101135780636bfb0d011461013e575b600080fd5b34801561009757600080fd5b506100b260048036038101906100ad9190611206565b61025a565b6040516100c4969594939291906112b1565b60405180910390f35b3480156100d957600080fd5b506100f460048036038101906100ef9190611312565b610300565b60405161010a9a99989796959493929190611526565b60405180910390f35b34801561011f57600080fd5b5061012861068d565b60405161013591906115f1565b60405180910390f35b34801561014a57600080fd5b506101536106b1565b604051610160919061160c565b60405180910390f35b34801561017557600080fd5b5061017e6106b7565b60405161018b919061160c565b60405180910390f35b3480156101a057600080fd5b506101bb60048036038101906101b69190611312565b6106db565b6040516101cf989796959493929190611686565b60405180910390f35b3480156101e457600080fd5b506101ff60048036038101906101fa9190611312565b610790565b60405161020c919061160c565b60405180910390f35b61022f600480360381019061022a9190611312565b6107f3565b005b34801561023d57600080fd5b5061025860048036038101906102539190611742565b610c94565b005b6002602052816000526040600020818154811061027657600080fd5b9060005260206000209060060201600091509150508060000154908060010160009054906101000a900473ffffffffffffffffffffffffffffffffffffffff16908060020160009054906101000a900473ffffffffffffffffffffffffffffffffffffffff16908060030154908060040154908060050160009054906101000a900460ff16905086565b6000806000806000806000806060806000600360008d81526020019081526020016000209050600081600001540361036d576040517f08c379a0000000000000000000000000000000000000000000000000000000008152600401610364906117e1565b60405180910390fd5b806002015498506000600260008b81526020019081526020016000208054905067ffffffffffffffff8111156103a6576103a5611801565b5b6040519080825280602002602001820160405280156103df57816020015b6103cc611158565b8152602001906001900390816103c45790505b50905060005b600260008c81526020019081526020016000208054905081101561052c576000600260008d8152602001908152602001600020828154811061042a57610429611830565b5b906000526020600020906006020190506040518060c00160405280826000015481526020018260010160009054906101000a900473ffffffffffffffffffffffffffffffffffffffff1673ffffffffffffffffffffffffffffffffffffffff1681526020018260020160009054906101000a900473ffffffffffffffffffffffffffffffffffffffff1673ffffffffffffffffffffffffffffffffffffffff16815260200182600301548152602001826004015481526020018260050160009054906101000a900460ff16151581525083838151811061050d5761050c611830565b5b60200260200101819052505080806105249061188e565b9150506103e5565b5081600001548260010160009054906101000a900473ffffffffffffffffffffffffffffffffffffffff16836002015484600301548560040160009054906101000a900473ffffffffffffffffffffffffffffffffffffffff168660050160009054906101000a900473ffffffffffffffffffffffffffffffffffffffff168760050160149054906101000a900460ff1688600601548960010160009054906101000a900473ffffffffffffffffffffffffffffffffffffffff1673ffffffffffffffffffffffffffffffffffffffff1663c87b56dd8b600201546040518263ffffffff1660e01b8152600401610623919061160c565b600060405180830381865afa158015610640573d6000803e3d6000fd5b505050506040513d6000823e3d601f19601f8201168201806040525081019061066991906119cd565b899b509b509b509b509b509b509b509b509b509b5050509193959799509193959799565b7f000000000000000000000000000000000000000000000000000000000000000081565b60015481565b7f000000000000000000000000000000000000000000000000000000000000000081565b60036020528060005260406000206000915090508060000154908060010160009054906101000a900473ffffffffffffffffffffffffffffffffffffffff16908060020154908060030154908060040160009054906101000a900473ffffffffffffffffffffffffffffffffffffffff16908060050160009054906101000a900473ffffffffffffffffffffffffffffffffffffffff16908060050160149054906101000a900460ff16908060060154905088565b600060647f000000000000000000000000000000000000000000000000000000000000000060646107c19190611a16565b60036000858152602001908152602001600020600301546107e29190611a4a565b6107ec9190611abb565b9050919050565b6107fb6110ff565b60008111801561080d57506001548111155b61084c576040517f08c379a0000000000000000000000000000000000000000000000000000000008152600401610843906117e1565b60405180910390fd5b6000600360008381526020019081526020016000209050600061086e83610790565b9050803410156108b3576040517f08c379a00000000000000000000000000000000000000000000000000000000081526004016108aa90611b38565b60405180910390fd5b8160050160149054906101000a900460ff1615610905576040517f08c379a00000000000000000000000000000000000000000000000000000000081526004016108fc90611ba4565b60405180910390fd5b8160040160009054906101000a900473ffffffffffffffffffffffffffffffffffffffff1673ffffffffffffffffffffffffffffffffffffffff166108fc83600301549081150290604051600060405180830381858888f19350505050158015610973573d6000803e3d6000fd5b507f000000000000000000000000000000000000000000000000000000000000000073ffffffffffffffffffffffffffffffffffffffff166108fc8360030154836109be9190611bc4565b9081150290604051600060405180830381858888f193505050501580156109e9573d6000803e3d6000fd5b5060018260050160146101000a81548160ff021916908315150217905550338260050160006101000a81548173ffffffffffffffffffffffffffffffffffffffff021916908373ffffffffffffffffffffffffffffffffffffffff1602179055504282600601819055508160010160009054906101000a900473ffffffffffffffffffffffffffffffffffffffff1673ffffffffffffffffffffffffffffffffffffffff166323b872dd303385600201546040518463ffffffff1660e01b8152600401610ab893929190611bf8565b600060405180830381600087803b158015610ad257600080fd5b505af1158015610ae6573d6000803e3d6000fd5b5050505060008260020154905060006002600083815260200190815260200160002060016002600085815260200190815260200160002080549050610b2b9190611bc4565b81548110610b3c57610b3b611830565b5b90600052602060002090600602019050338160020160006101000a81548173ffffffffffffffffffffffffffffffffffffffff021916908373ffffffffffffffffffffffffffffffffffffffff16021790555060018160050160006101000a81548160ff0219169083151502179055504281600401819055503373ffffffffffffffffffffffffffffffffffffffff168460040160009054906101000a900473ffffffffffffffffffffffffffffffffffffffff1673ffffffffffffffffffffffffffffffffffffffff168560010160009054906101000a900473ffffffffffffffffffffffffffffffffffffffff1673ffffffffffffffffffffffffffffffffffffffff167f8b4c9c8a607d67b321582dd8461041b1dc2ceeca70c8b7f37f8e02095cf2e76d8888600201548960030154604051610c7d93929190611c2f565b60405180910390a450505050610c9161114e565b50565b610c9c6110ff565b60008111610cdf576040517f08c379a0000000000000000000000000000000000000000000000000000000008152600401610cd690611cb2565b60405180910390fd5b60016000815480929190610cf29061188e565b91905055508273ffffffffffffffffffffffffffffffffffffffff166323b872dd3330856040518463ffffffff1660e01b8152600401610d3493929190611bf8565b600060405180830381600087803b158015610d4e57600080fd5b505af1158015610d62573d6000803e3d6000fd5b5050505060405180610100016040528060015481526020018473ffffffffffffffffffffffffffffffffffffffff1681526020018381526020018281526020013373ffffffffffffffffffffffffffffffffffffffff168152602001600073ffffffffffffffffffffffffffffffffffffffff16815260200160001515815260200160008152506003600060015481526020019081526020016000206000820151816000015560208201518160010160006101000a81548173ffffffffffffffffffffffffffffffffffffffff021916908373ffffffffffffffffffffffffffffffffffffffff160217905550604082015181600201556060820151816003015560808201518160040160006101000a81548173ffffffffffffffffffffffffffffffffffffffff021916908373ffffffffffffffffffffffffffffffffffffffff16021790555060a08201518160050160006101000a81548173ffffffffffffffffffffffffffffffffffffffff021916908373ffffffffffffffffffffffffffffffffffffffff16021790555060c08201518160050160146101000a81548160ff02191690831515021790555060e08201518160060155905050600260008381526020019081526020016000206040518060c0016040528060015481526020013373ffffffffffffffffffffffffffffffffffffffff168152602001600073ffffffffffffffffffffffffffffffffffffffff1681526020018381526020014281526020016000151581525090806001815401808255809150506001900390600052602060002090600602016000909190919091506000820151816000015560208201518160010160006101000a81548173ffffffffffffffffffffffffffffffffffffffff021916908373ffffffffffffffffffffffffffffffffffffffff16021790555060408201518160020160006101000a81548173ffffffffffffffffffffffffffffffffffffffff021916908373ffffffffffffffffffffffffffffffffffffffff160217905550606082015181600301556080820151816004015560a08201518160050160006101000a81548160ff02191690831515021790555050503373ffffffffffffffffffffffffffffffffffffffff168373ffffffffffffffffffffffffffffffffffffffff167f655a0cf9c8db81512be9a76dc1c5ae5380b8816ce6ad659cd61b715e2999d59a60015485856040516110ea93929190611c2f565b60405180910390a36110fa61114e565b505050565b600260005403611144576040517f08c379a000000000000000000000000000000000000000000000000000000000815260040161113b90611d1e565b60405180910390fd5b6002600081905550565b6001600081905550565b6040518060c0016040528060008152602001600073ffffffffffffffffffffffffffffffffffffffff168152602001600073ffffffffffffffffffffffffffffffffffffffff16815260200160008152602001600081526020016000151581525090565b6000604051905090565b600080fd5b600080fd5b6000819050919050565b6111e3816111d0565b81146111ee57600080fd5b50565b600081359050611200816111da565b92915050565b6000806040838503121561121d5761121c6111c6565b5b600061122b858286016111f1565b925050602061123c858286016111f1565b9150509250929050565b61124f816111d0565b82525050565b600073ffffffffffffffffffffffffffffffffffffffff82169050919050565b600061128082611255565b9050919050565b61129081611275565b82525050565b60008115159050919050565b6112ab81611296565b82525050565b600060c0820190506112c66000830189611246565b6112d36020830188611287565b6112e06040830187611287565b6112ed6060830186611246565b6112fa6080830185611246565b61130760a08301846112a2565b979650505050505050565b600060208284031215611328576113276111c6565b5b6000611336848285016111f1565b91505092915050565b600081519050919050565b600082825260208201905092915050565b60005b8381101561137957808201518184015260208101905061135e565b60008484015250505050565b6000601f19601f8301169050919050565b60006113a18261133f565b6113ab818561134a565b93506113bb81856020860161135b565b6113c481611385565b840191505092915050565b600081519050919050565b600082825260208201905092915050565b6000819050602082019050919050565b611404816111d0565b82525050565b61141381611275565b82525050565b61142281611296565b82525050565b60c08201600082015161143e60008501826113fb565b506020820151611451602085018261140a565b506040820151611464604085018261140a565b50606082015161147760608501826113fb565b50608082015161148a60808501826113fb565b5060a082015161149d60a0850182611419565b50505050565b60006114af8383611428565b60c08301905092915050565b6000602082019050919050565b60006114d3826113cf565b6114dd81856113da565b93506114e8836113eb565b8060005b8381101561151957815161150088826114a3565b975061150b836114bb565b9250506001810190506114ec565b5085935050505092915050565b60006101408201905061153c600083018d611246565b611549602083018c611287565b611556604083018b611246565b611563606083018a611246565b6115706080830189611287565b61157d60a0830188611287565b61158a60c08301876112a2565b61159760e0830186611246565b8181036101008301526115aa8185611396565b90508181036101208301526115bf81846114c8565b90509b9a5050505050505050505050565b60006115db82611255565b9050919050565b6115eb816115d0565b82525050565b600060208201905061160660008301846115e2565b92915050565b60006020820190506116216000830184611246565b92915050565b6000819050919050565b600061164c61164761164284611255565b611627565b611255565b9050919050565b600061165e82611631565b9050919050565b600061167082611653565b9050919050565b61168081611665565b82525050565b60006101008201905061169c600083018b611246565b6116a9602083018a611677565b6116b66040830189611246565b6116c36060830188611246565b6116d060808301876115e2565b6116dd60a08301866115e2565b6116ea60c08301856112a2565b6116f760e0830184611246565b9998505050505050505050565b600061170f82611275565b9050919050565b61171f81611704565b811461172a57600080fd5b50565b60008135905061173c81611716565b92915050565b60008060006060848603121561175b5761175a6111c6565b5b60006117698682870161172d565b935050602061177a868287016111f1565b925050604061178b868287016111f1565b9150509250925092565b7f4974656d20646f65736e27742065786973740000000000000000000000000000600082015250565b60006117cb60128361134a565b91506117d682611795565b602082019050919050565b600060208201905081810360008301526117fa816117be565b9050919050565b7f4e487b7100000000000000000000000000000000000000000000000000000000600052604160045260246000fd5b7f4e487b7100000000000000000000000000000000000000000000000000000000600052603260045260246000fd5b7f4e487b7100000000000000000000000000000000000000000000000000000000600052601160045260246000fd5b6000611899826111d0565b91507fffffffffffffffffffffffffffffffffffffffffffffffffffffffffffffffff82036118cb576118ca61185f565b5b600182019050919050565b600080fd5b600080fd5b6118e982611385565b810181811067ffffffffffffffff8211171561190857611907611801565b5b80604052505050565b600061191b6111bc565b905061192782826118e0565b919050565b600067ffffffffffffffff82111561194757611946611801565b5b61195082611385565b9050602081019050919050565b600061197061196b8461192c565b611911565b90508281526020810184848401111561198c5761198b6118db565b5b61199784828561135b565b509392505050565b600082601f8301126119b4576119b36118d6565b5b81516119c484826020860161195d565b91505092915050565b6000602082840312156119e3576119e26111c6565b5b600082015167ffffffffffffffff811115611a0157611a006111cb565b5b611a0d8482850161199f565b91505092915050565b6000611a21826111d0565b9150611a2c836111d0565b9250828201905080821115611a4457611a4361185f565b5b92915050565b6000611a55826111d0565b9150611a60836111d0565b9250828202611a6e816111d0565b91508282048414831517611a8557611a8461185f565b5b5092915050565b7f4e487b7100000000000000000000000000000000000000000000000000000000600052601260045260246000fd5b6000611ac6826111d0565b9150611ad1836111d0565b925082611ae157611ae0611a8c565b5b828204905092915050565b7f4e6f7420656e6f75676820657468657200000000000000000000000000000000600082015250565b6000611b2260108361134a565b9150611b2d82611aec565b602082019050919050565b60006020820190508181036000830152611b5181611b15565b9050919050565b7f4974656d20616c726561647920736f6c64000000000000000000000000000000600082015250565b6000611b8e60118361134a565b9150611b9982611b58565b602082019050919050565b60006020820190508181036000830152611bbd81611b81565b9050919050565b6000611bcf826111d0565b9150611bda836111d0565b9250828203905081811115611bf257611bf161185f565b5b92915050565b6000606082019050611c0d6000830186611287565b611c1a6020830185611287565b611c276040830184611246565b949350505050565b6000606082019050611c446000830186611246565b611c516020830185611246565b611c5e6040830184611246565b949350505050565b7f5072696365206d7573742062652067726561746572207468616e207a65726f00600082015250565b6000611c9c601f8361134a565b9150611ca782611c66565b602082019050919050565b60006020820190508181036000830152611ccb81611c8f565b9050919050565b7f5265656e7472616e637947756172643a207265656e7472616e742063616c6c00600082015250565b6000611d08601f8361134a565b9150611d1382611cd2565b602082019050919050565b60006020820190508181036000830152611d3781611cfb565b905091905056fea2646970667358221220aeaff040a13a5d36b09350d39da5c85645d9363c661b9f614d59ac1ace02050764736f6c63430008130033",
  "linkReferences": {},
  "deployedLinkReferences": {},
  "immutableReferences": {
    "2934": [
      {
        "length": 32,
        "start": 1679
      },
      {
        "length": 32,
        "start": 2422
      }
    ],
    "2936": [
      {
        "length": 32,
        "start": 1721
      },
      {
        "length": 32,
        "start": 1942
      }
    ]
  },
  "inputSourceName": "project/contracts/Marketplace.sol",
  "buildInfoId": "solc-0_8_19-be4aa44a93e8f00b05eefdc47a119f7104200420"
}