{
  "_format": "hh3-artifact-1",
  "contractName": "Marketplace",
  "sourceName": "contracts/Marketplace.sol",
  "abi": [
    {
      "inputs": [
        {
          "internalType": "uint256",
          "name": "_feePercent",
          "type": "uint256"
        }
      ],
      "stateMutability": "nonpayable",
      "type": "constructor"
    },
    {
      "anonymous": false,
      "inputs": [
        {
          "indexed": false,
          "internalType": "uint256",
          "name": "itemId",
          "type": "uint256"
        },
        {
          "indexed": true,
          "internalType": "address",
          "name": "nft",
          "type": "address"
        },
        {
          "indexed": false,
          "internalType": "uint256",
          "name": "tokenId",
          "type": "uint256"
        },
        {
          "indexed": false,
          "internalType": "uint256",
          "name": "price",
          "type": "uint256"
        },
        {
          "indexed": true,
          "internalType": "address",
          "name": "seller",
          "type": "address"
        },
        {
          "indexed": true,
          "internalType": "address",
          "name": "buyer",
          "type": "address"
        }
      ],
      "name": "Bought",
      "type": "event"
    },
    {
      "anonymous": false,
      "inputs": [
        {
          "indexed": false,
          "internalType": "uint256",
          "name": "itemId",
          "type": "uint256"
        },
        {
          "indexed": true,
          "internalType": "address",
          "name": "nft",
          "type": "address"
        },
        {
          "indexed": false,
          "internalType": "uint256",
          "name": "tokenId",
          "type": "uint256"
        },
        {
          "indexed": false,
          "internalType": "uint256",
          "name": "price",
          "type": "uint256"
        },
        {
          "indexed": true,
          "internalType": "address",
          "name": "seller",
          "type": "address"
        }
      ],
      "name": "Offered",
      "type": "event"
    },
    {
      "inputs": [],
      "name": "feeAccount",
      "outputs": [
        {
          "internalType": "address payable",
          "name": "",
          "type": "address"
        }
      ],
      "stateMutability": "view",
      "type": "function"
    },
    {
      "inputs": [],
      "name": "feePercent",
      "outputs": [
        {
          "internalType": "uint256",
          "name": "",
          "type": "uint256"
        }
      ],
      "stateMutability": "view",
      "type": "function"
    },
    {
      "inputs": [
        {
          "internalType": "uint256",
          "name": "_itemId",
          "type": "uint256"
        }
      ],
      "name": "getItem",
      "outputs": [
        {
          "internalType": "uint256",
          "name": "itemId",
          "type": "uint256"
        },
        {
          "internalType": "address",
          "name": "nft",
          "type": "address"
        },
        {
          "internalType": "uint256",
          "name": "tokenId",
          "type": "uint256"
        },
        {
          "internalType": "uint256",
          "name": "price",
          "type": "uint256"
        },
        {
          "internalType": "address",
          "name": "seller",
          "type": "address"
        },
        {
          "internalType": "bool",
          "name": "sold",
          "type": "bool"
        },
        {
          "internalType": "string",
          "name": "tokenURI",
          "type": "string"
        }
      ],
      "stateMutability": "view",
      "type": "function"
    },
    {
      "inputs": [
        {
          "internalType": "uint256",
          "name": "_itemId",
          "type": "uint256"
        }
      ],
      "name": "getTotalPrice",
      "outputs": [
        {
          "internalType": "uint256",
          "name": "",
          "type": "uint256"
        }
      ],
      "stateMutability": "view",
      "type": "function"
    },
    {
      "inputs": [],
      "name": "itemCount",
      "outputs": [
        {
          "internalType": "uint256",
          "name": "",
          "type": "uint256"
        }
      ],
      "stateMutability": "view",
      "type": "function"
    },
    {
      "inputs": [
        {
          "internalType": "uint256",
          "name": "",
          "type": "uint256"
        }
      ],
      "name": "items",
      "outputs": [
        {
          "internalType": "uint256",
          "name": "itemId",
          "type": "uint256"
        },
        {
          "internalType": "contract IERC721",
          "name": "nft",
          "type": "address"
        },
        {
          "internalType": "uint256",
          "name": "tokenId",
          "type": "uint256"
        },
        {
          "internalType": "uint256",
          "name": "price",
          "type": "uint256"
        },
        {
          "internalType": "address payable",
          "name": "seller",
          "type": "address"
        },
        {
          "internalType": "address payable",
          "name": "buyer",
          "type": "address"
        },
        {
          "internalType": "bool",
          "name": "sold",
          "type": "bool"
        },
        {
          "internalType": "uint256",
          "name": "boughtAt",
          "type": "uint256"
        }
      ],
      "stateMutability": "view",
      "type": "function"
    },
    {
      "inputs": [
        {
          "internalType": "contract IERC721",
          "name": "_nft",
          "type": "address"
        },
        {
          "internalType": "uint256",
          "name": "_tokenId",
          "type": "uint256"
        },
        {
          "internalType": "uint256",
          "name": "_price",
          "type": "uint256"
        }
      ],
      "name": "makeItem",
      "outputs": [],
      "stateMutability": "nonpayable",
      "type": "function"
    },
    {
      "inputs": [
        {
          "internalType": "uint256",
          "name": "_itemId",
          "type": "uint256"
        }
      ],
      "name": "purchaseItem",
      "outputs": [],
      "stateMutability": "payable",
      "type": "function"
    }
  ],
  "bytecode": "0x60c06040523480156200001157600080fd5b50604051620016b9380380620016b98339818101604052810190620000379190620000c2565b60016000819055503373ffffffffffffffffffffffffffffffffffffffff1660808173ffffffffffffffffffffffffffffffffffffffff16815250508060a0818152505050620000f4565b600080fd5b6000819050919050565b6200009c8162000087565b8114620000a857600080fd5b50565b600081519050620000bc8162000091565b92915050565b600060208284031215620000db57620000da62000082565b5b6000620000eb84828501620000ab565b91505092915050565b60805160a05161159162000128600039600081816103cb01526104a80152600081816103a1015261068801526115916000f3fe60806040526004361061007b5760003560e01c8063bfb231d21161004e578063bfb231d214610144578063ca7dd37514610188578063d38ea5bf146101c5578063fa00afc7146101e15761007b565b80633129e7731461008057806365e17c9d146100c35780636bfb0d01146100ee5780637fd6f15c14610119575b600080fd5b34801561008c57600080fd5b506100a760048036038101906100a29190610c7e565b61020a565b6040516100ba9796959493929190610da6565b60405180910390f35b3480156100cf57600080fd5b506100d861039f565b6040516100e59190610e3d565b60405180910390f35b3480156100fa57600080fd5b506101036103c3565b6040516101109190610e58565b60405180910390f35b34801561012557600080fd5b5061012e6103c9565b60405161013b9190610e58565b60405180910390f35b34801561015057600080fd5b5061016b60048036038101906101669190610c7e565b6103ed565b60405161017f989796959493929190610ed2565b60405180910390f35b34801561019457600080fd5b506101af60048036038101906101aa9190610c7e565b6104a2565b6040516101bc9190610e58565b60405180910390f35b6101df60048036038101906101da9190610c7e565b610505565b005b3480156101ed57600080fd5b5061020860048036038101906102039190610f8e565b6108d9565b005b60008060008060008060606000600260008a815260200190815260200160002090506000816000015403610273576040517f08c379a000000000000000000000000000000000000000000000000000000000815260040161026a9061102d565b60405180910390fd5b80600001548160010160009054906101000a900473ffffffffffffffffffffffffffffffffffffffff16826002015483600301548460040160009054906101000a900473ffffffffffffffffffffffffffffffffffffffff168560050160149054906101000a900460ff168660010160009054906101000a900473ffffffffffffffffffffffffffffffffffffffff1673ffffffffffffffffffffffffffffffffffffffff1663c87b56dd88600201546040518263ffffffff1660e01b815260040161033f9190610e58565b600060405180830381865afa15801561035c573d6000803e3d6000fd5b505050506040513d6000823e3d601f19601f820116820180604052508101906103859190611173565b975097509750975097509750975050919395979092949650565b7f000000000000000000000000000000000000000000000000000000000000000081565b60015481565b7f000000000000000000000000000000000000000000000000000000000000000081565b60026020528060005260406000206000915090508060000154908060010160009054906101000a900473ffffffffffffffffffffffffffffffffffffffff16908060020154908060030154908060040160009054906101000a900473ffffffffffffffffffffffffffffffffffffffff16908060050160009054906101000a900473ffffffffffffffffffffffffffffffffffffffff16908060050160149054906101000a900460ff16908060060154905088565b600060647f000000000000000000000000000000000000000000000000000000000000000060646104d391906111eb565b60026000858152602001908152602001600020600301546104f4919061121f565b6104fe9190611290565b9050919050565b61050d610bdb565b6000610518826104a2565b9050600060026000848152602001908152602001600020905060008311801561054357506001548311155b610582576040517f08c379a00000000000000000000000000000000000000000000000000000000081526004016105799061102d565b60405180910390fd5b813410156105c5576040517f08c379a00000000000000000000000000000000000000000000000000000000081526004016105bc9061130d565b60405180910390fd5b8060050160149054906101000a900460ff1615610617576040517f08c379a000000000000000000000000000000000000000000000000000000000815260040161060e90611379565b60405180910390fd5b8060040160009054906101000a900473ffffffffffffffffffffffffffffffffffffffff1673ffffffffffffffffffffffffffffffffffffffff166108fc82600301549081150290604051600060405180830381858888f19350505050158015610685573d6000803e3d6000fd5b507f000000000000000000000000000000000000000000000000000000000000000073ffffffffffffffffffffffffffffffffffffffff166108fc8260030154846106d09190611399565b9081150290604051600060405180830381858888f193505050501580156106fb573d6000803e3d6000fd5b5060018160050160146101000a81548160ff021916908315150217905550338160050160006101000a81548173ffffffffffffffffffffffffffffffffffffffff021916908373ffffffffffffffffffffffffffffffffffffffff1602179055504281600601819055508060010160009054906101000a900473ffffffffffffffffffffffffffffffffffffffff1673ffffffffffffffffffffffffffffffffffffffff166323b872dd303384600201546040518463ffffffff1660e01b81526004016107ca939291906113cd565b600060405180830381600087803b1580156107e457600080fd5b505af11580156107f8573d6000803e3d6000fd5b505050503373ffffffffffffffffffffffffffffffffffffffff168160040160009054906101000a900473ffffffffffffffffffffffffffffffffffffffff1673ffffffffffffffffffffffffffffffffffffffff168260010160009054906101000a900473ffffffffffffffffffffffffffffffffffffffff1673ffffffffffffffffffffffffffffffffffffffff167f8b4c9c8a607d67b321582dd8461041b1dc2ceeca70c8b7f37f8e02095cf2e76d86856002015486600301546040516108c493929190611404565b60405180910390a450506108d6610c2a565b50565b6108e1610bdb565b60008111610924576040517f08c379a000000000000000000000000000000000000000000000000000000000815260040161091b90611487565b60405180910390fd5b60016000815480929190610937906114a7565b91905055508273ffffffffffffffffffffffffffffffffffffffff166323b872dd3330856040518463ffffffff1660e01b8152600401610979939291906113cd565b600060405180830381600087803b15801561099357600080fd5b505af11580156109a7573d6000803e3d6000fd5b5050505060405180610100016040528060015481526020018473ffffffffffffffffffffffffffffffffffffffff1681526020018381526020018281526020013373ffffffffffffffffffffffffffffffffffffffff168152602001600073ffffffffffffffffffffffffffffffffffffffff16815260200160001515815260200160008152506002600060015481526020019081526020016000206000820151816000015560208201518160010160006101000a81548173ffffffffffffffffffffffffffffffffffffffff021916908373ffffffffffffffffffffffffffffffffffffffff160217905550604082015181600201556060820151816003015560808201518160040160006101000a81548173ffffffffffffffffffffffffffffffffffffffff021916908373ffffffffffffffffffffffffffffffffffffffff16021790555060a08201518160050160006101000a81548173ffffffffffffffffffffffffffffffffffffffff021916908373ffffffffffffffffffffffffffffffffffffffff16021790555060c08201518160050160146101000a81548160ff02191690831515021790555060e082015181600601559050503373ffffffffffffffffffffffffffffffffffffffff168373ffffffffffffffffffffffffffffffffffffffff167f655a0cf9c8db81512be9a76dc1c5ae5380b8816ce6ad659cd61b715e2999d59a6001548585604051610bc693929190611404565b60405180910390a3610bd6610c2a565b505050565b600260005403610c20576040517f08c379a0000000000000000000000000000000000000000000000000000000008152600401610c179061153b565b60405180910390fd5b6002600081905550565b6001600081905550565b6000604051905090565b600080fd5b600080fd5b6000819050919050565b610c5b81610c48565b8114610c6657600080fd5b50565b600081359050610c7881610c52565b92915050565b600060208284031215610c9457610c93610c3e565b5b6000610ca284828501610c69565b91505092915050565b610cb481610c48565b82525050565b600073ffffffffffffffffffffffffffffffffffffffff82169050919050565b6000610ce582610cba565b9050919050565b610cf581610cda565b82525050565b60008115159050919050565b610d1081610cfb565b82525050565b600081519050919050565b600082825260208201905092915050565b60005b83811015610d50578082015181840152602081019050610d35565b60008484015250505050565b6000601f19601f8301169050919050565b6000610d7882610d16565b610d828185610d21565b9350610d92818560208601610d32565b610d9b81610d5c565b840191505092915050565b600060e082019050610dbb600083018a610cab565b610dc86020830189610cec565b610dd56040830188610cab565b610de26060830187610cab565b610def6080830186610cec565b610dfc60a0830185610d07565b81810360c0830152610e0e8184610d6d565b905098975050505050505050565b6000610e2782610cba565b9050919050565b610e3781610e1c565b82525050565b6000602082019050610e526000830184610e2e565b92915050565b6000602082019050610e6d6000830184610cab565b92915050565b6000819050919050565b6000610e98610e93610e8e84610cba565b610e73565b610cba565b9050919050565b6000610eaa82610e7d565b9050919050565b6000610ebc82610e9f565b9050919050565b610ecc81610eb1565b82525050565b600061010082019050610ee8600083018b610cab565b610ef5602083018a610ec3565b610f026040830189610cab565b610f0f6060830188610cab565b610f1c6080830187610e2e565b610f2960a0830186610e2e565b610f3660c0830185610d07565b610f4360e0830184610cab565b9998505050505050505050565b6000610f5b82610cda565b9050919050565b610f6b81610f50565b8114610f7657600080fd5b50565b600081359050610f8881610f62565b92915050565b600080600060608486031215610fa757610fa6610c3e565b5b6000610fb586828701610f79565b9350506020610fc686828701610c69565b9250506040610fd786828701610c69565b9150509250925092565b7f4974656d20646f65736e27742065786973740000000000000000000000000000600082015250565b6000611017601283610d21565b915061102282610fe1565b602082019050919050565b600060208201905081810360008301526110468161100a565b9050919050565b600080fd5b600080fd5b7f4e487b7100000000000000000000000000000000000000000000000000000000600052604160045260246000fd5b61108f82610d5c565b810181811067ffffffffffffffff821117156110ae576110ad611057565b5b80604052505050565b60006110c1610c34565b90506110cd8282611086565b919050565b600067ffffffffffffffff8211156110ed576110ec611057565b5b6110f682610d5c565b9050602081019050919050565b6000611116611111846110d2565b6110b7565b90508281526020810184848401111561113257611131611052565b5b61113d848285610d32565b509392505050565b600082601f83011261115a5761115961104d565b5b815161116a848260208601611103565b91505092915050565b60006020828403121561118957611188610c3e565b5b600082015167ffffffffffffffff8111156111a7576111a6610c43565b5b6111b384828501611145565b91505092915050565b7f4e487b7100000000000000000000000000000000000000000000000000000000600052601160045260246000fd5b60006111f682610c48565b915061120183610c48565b9250828201905080821115611219576112186111bc565b5b92915050565b600061122a82610c48565b915061123583610c48565b925082820261124381610c48565b9150828204841483151761125a576112596111bc565b5b5092915050565b7f4e487b7100000000000000000000000000000000000000000000000000000000600052601260045260246000fd5b600061129b82610c48565b91506112a683610c48565b9250826112b6576112b5611261565b5b828204905092915050565b7f4e6f7420656e6f75676820657468657200000000000000000000000000000000600082015250565b60006112f7601083610d21565b9150611302826112c1565b602082019050919050565b60006020820190508181036000830152611326816112ea565b9050919050565b7f4974656d20616c726561647920736f6c64000000000000000000000000000000600082015250565b6000611363601183610d21565b915061136e8261132d565b602082019050919050565b6000602082019050818103600083015261139281611356565b9050919050565b60006113a482610c48565b91506113af83610c48565b92508282039050818111156113c7576113c66111bc565b5b92915050565b60006060820190506113e26000830186610cec565b6113ef6020830185610cec565b6113fc6040830184610cab565b949350505050565b60006060820190506114196000830186610cab565b6114266020830185610cab565b6114336040830184610cab565b949350505050565b7f5072696365206d7573742062652067726561746572207468616e207a65726f00600082015250565b6000611471601f83610d21565b915061147c8261143b565b602082019050919050565b600060208201905081810360008301526114a081611464565b9050919050565b60006114b282610c48565b91507fffffffffffffffffffffffffffffffffffffffffffffffffffffffffffffffff82036114e4576114e36111bc565b5b600182019050919050565b7f5265656e7472616e637947756172643a207265656e7472616e742063616c6c00600082015250565b6000611525601f83610d21565b9150611530826114ef565b602082019050919050565b6000602082019050818103600083015261155481611518565b905091905056fea2646970667358221220bf9afdb91ea9f2a8100427aaa5530b3120fed33a4feede2ea360c4be87f3d66464736f6c63430008130033",
  "linkReferences": {},
  "deployedLinkReferences": {},
  "immutableReferences": {
    "2934": [
      {
        "length": 32,
        "start": 929
      },
      {
        "length": 32,
        "start": 1672
      }
    ],
    "2936": [
      {
        "length": 32,
        "start": 971
      },
      {
        "length": 32,
        "start": 1192
      }
    ]
  },
  "inputSourceName": "project/contracts/Marketplace.sol",
  "buildInfoId": "solc-0_8_19-d68fd3c9357dc09917008e36a010eaa282fd38c7"
}