{
  "_format": "hh3-artifact-1",
  "contractName": "Marketplace",
  "sourceName": "contracts/Marketplace.sol",
  "abi": [
    {
      "inputs": [
        {
          "internalType": "uint256",
          "name": "_feePercent",
          "type": "uint256"
        }
      ],
      "stateMutability": "nonpayable",
      "type": "constructor"
    },
    {
      "anonymous": false,
      "inputs": [
        {
          "indexed": false,
          "internalType": "uint256",
          "name": "itemId",
          "type": "uint256"
        },
        {
          "indexed": true,
          "internalType": "address",
          "name": "nft",
          "type": "address"
        },
        {
          "indexed": false,
          "internalType": "uint256",
          "name": "tokenId",
          "type": "uint256"
        },
        {
          "indexed": false,
          "internalType": "uint256",
          "name": "price",
          "type": "uint256"
        },
        {
          "indexed": true,
          "internalType": "address",
          "name": "seller",
          "type": "address"
        },
        {
          "indexed": true,
          "internalType": "address",
          "name": "buyer",
          "type": "address"
        }
      ],
      "name": "Bought",
      "type": "event"
    },
    {
      "anonymous": false,
      "inputs": [
        {
          "indexed": false,
          "internalType": "uint256",
          "name": "itemId",
          "type": "uint256"
        },
        {
          "indexed": true,
          "internalType": "address",
          "name": "nft",
          "type": "address"
        },
        {
          "indexed": false,
          "internalType": "uint256",
          "name": "tokenId",
          "type": "uint256"
        },
        {
          "indexed": false,
          "internalType": "uint256",
          "name": "price",
          "type": "uint256"
        },
        {
          "indexed": true,
          "internalType": "address",
          "name": "seller",
          "type": "address"
        }
      ],
      "name": "Offered",
      "type": "event"
    },
    {
      "inputs": [],
      "name": "feeAccount",
      "outputs": [
        {
          "internalType": "address payable",
          "name": "",
          "type": "address"
        }
      ],
      "stateMutability": "view",
      "type": "function"
    },
    {
      "inputs": [],
      "name": "feePercent",
      "outputs": [
        {
          "internalType": "uint256",
          "name": "",
          "type": "uint256"
        }
      ],
      "stateMutability": "view",
      "type": "function"
    },
    {
      "inputs": [
        {
          "internalType": "uint256",
          "name": "_itemId",
          "type": "uint256"
        }
      ],
      "name": "getItem",
      "outputs": [
        {
          "internalType": "uint256",
          "name": "itemId",
          "type": "uint256"
        },
        {
          "internalType": "address",
          "name": "nft",
          "type": "address"
        },
        {
          "internalType": "uint256",
          "name": "tokenId",
          "type": "uint256"
        },
        {
          "internalType": "uint256",
          "name": "price",
          "type": "uint256"
        },
        {
          "internalType": "address",
          "name": "seller",
          "type": "address"
        },
        {
          "internalType": "address",
          "name": "buyer",
          "type": "address"
        },
        {
          "internalType": "bool",
          "name": "sold",
          "type": "bool"
        },
        {
          "internalType": "uint256",
          "name": "boughtAt",
          "type": "uint256"
        },
        {
          "internalType": "string",
          "name": "tokenURI",
          "type": "string"
        }
      ],
      "stateMutability": "view",
      "type": "function"
    },
    {
      "inputs": [
        {
          "internalType": "uint256",
          "name": "_itemId",
          "type": "uint256"
        }
      ],
      "name": "getTotalPrice",
      "outputs": [
        {
          "internalType": "uint256",
          "name": "",
          "type": "uint256"
        }
      ],
      "stateMutability": "view",
      "type": "function"
    },
    {
      "inputs": [],
      "name": "itemCount",
      "outputs": [
        {
          "internalType": "uint256",
          "name": "",
          "type": "uint256"
        }
      ],
      "stateMutability": "view",
      "type": "function"
    },
    {
      "inputs": [
        {
          "internalType": "uint256",
          "name": "",
          "type": "uint256"
        }
      ],
      "name": "items",
      "outputs": [
        {
          "internalType": "uint256",
          "name": "itemId",
          "type": "uint256"
        },
        {
          "internalType": "contract IERC721",
          "name": "nft",
          "type": "address"
        },
        {
          "internalType": "uint256",
          "name": "tokenId",
          "type": "uint256"
        },
        {
          "internalType": "uint256",
          "name": "price",
          "type": "uint256"
        },
        {
          "internalType": "address payable",
          "name": "seller",
          "type": "address"
        },
        {
          "internalType": "address payable",
          "name": "buyer",
          "type": "address"
        },
        {
          "internalType": "bool",
          "name": "sold",
          "type": "bool"
        },
        {
          "internalType": "uint256",
          "name": "boughtAt",
          "type": "uint256"
        }
      ],
      "stateMutability": "view",
      "type": "function"
    },
    {
      "inputs": [
        {
          "internalType": "contract IERC721",
          "name": "_nft",
          "type": "address"
        },
        {
          "internalType": "uint256",
          "name": "_tokenId",
          "type": "uint256"
        },
        {
          "internalType": "uint256",
          "name": "_price",
          "type": "uint256"
        }
      ],
      "name": "makeItem",
      "outputs": [],
      "stateMutability": "nonpayable",
      "type": "function"
    },
    {
      "inputs": [
        {
          "internalType": "uint256",
          "name": "_itemId",
          "type": "uint256"
        }
      ],
      "name": "purchaseItem",
      "outputs": [],
      "stateMutability": "payable",
      "type": "function"
    }
  ],
  "bytecode": "0x60c06040523480156200001157600080fd5b506040516200170c3803806200170c8339818101604052810190620000379190620000c2565b60016000819055503373ffffffffffffffffffffffffffffffffffffffff1660808173ffffffffffffffffffffffffffffffffffffffff16815250508060a0818152505050620000f4565b600080fd5b6000819050919050565b6200009c8162000087565b8114620000a857600080fd5b50565b600081519050620000bc8162000091565b92915050565b600060208284031215620000db57620000da62000082565b5b6000620000eb84828501620000ab565b91505092915050565b60805160a0516115e4620001286000396000818161040001526104dd0152600081816103d601526106bd01526115e46000f3fe60806040526004361061007b5760003560e01c8063bfb231d21161004e578063bfb231d214610146578063ca7dd3751461018a578063d38ea5bf146101c7578063fa00afc7146101e35761007b565b80633129e7731461008057806365e17c9d146100c55780636bfb0d01146100f05780637fd6f15c1461011b575b600080fd5b34801561008c57600080fd5b506100a760048036038101906100a29190610cb3565b61020c565b6040516100bc99989796959493929190610ddb565b60405180910390f35b3480156100d157600080fd5b506100da6103d4565b6040516100e79190610e90565b60405180910390f35b3480156100fc57600080fd5b506101056103f8565b6040516101129190610eab565b60405180910390f35b34801561012757600080fd5b506101306103fe565b60405161013d9190610eab565b60405180910390f35b34801561015257600080fd5b5061016d60048036038101906101689190610cb3565b610422565b604051610181989796959493929190610f25565b60405180910390f35b34801561019657600080fd5b506101b160048036038101906101ac9190610cb3565b6104d7565b6040516101be9190610eab565b60405180910390f35b6101e160048036038101906101dc9190610cb3565b61053a565b005b3480156101ef57600080fd5b5061020a60048036038101906102059190610fe1565b61090e565b005b60008060008060008060008060606000600260008c815260200190815260200160002090506000816000015403610278576040517f08c379a000000000000000000000000000000000000000000000000000000000815260040161026f90611080565b60405180910390fd5b80600001548160010160009054906101000a900473ffffffffffffffffffffffffffffffffffffffff16826002015483600301548460040160009054906101000a900473ffffffffffffffffffffffffffffffffffffffff168560050160009054906101000a900473ffffffffffffffffffffffffffffffffffffffff168660050160149054906101000a900460ff1687600601548860010160009054906101000a900473ffffffffffffffffffffffffffffffffffffffff1673ffffffffffffffffffffffffffffffffffffffff1663c87b56dd8a600201546040518263ffffffff1660e01b815260040161036e9190610eab565b600060405180830381865afa15801561038b573d6000803e3d6000fd5b505050506040513d6000823e3d601f19601f820116820180604052508101906103b491906111c6565b995099509950995099509950995099509950509193959799909294969850565b7f000000000000000000000000000000000000000000000000000000000000000081565b60015481565b7f000000000000000000000000000000000000000000000000000000000000000081565b60026020528060005260406000206000915090508060000154908060010160009054906101000a900473ffffffffffffffffffffffffffffffffffffffff16908060020154908060030154908060040160009054906101000a900473ffffffffffffffffffffffffffffffffffffffff16908060050160009054906101000a900473ffffffffffffffffffffffffffffffffffffffff16908060050160149054906101000a900460ff16908060060154905088565b600060647f00000000000000000000000000000000000000000000000000000000000000006064610508919061123e565b60026000858152602001908152602001600020600301546105299190611272565b61053391906112e3565b9050919050565b610542610c10565b60008111801561055457506001548111155b610593576040517f08c379a000000000000000000000000000000000000000000000000000000000815260040161058a90611080565b60405180910390fd5b600060026000838152602001908152602001600020905060006105b5836104d7565b9050803410156105fa576040517f08c379a00000000000000000000000000000000000000000000000000000000081526004016105f190611360565b60405180910390fd5b8160050160149054906101000a900460ff161561064c576040517f08c379a0000000000000000000000000000000000000000000000000000000008152600401610643906113cc565b60405180910390fd5b8160040160009054906101000a900473ffffffffffffffffffffffffffffffffffffffff1673ffffffffffffffffffffffffffffffffffffffff166108fc83600301549081150290604051600060405180830381858888f193505050501580156106ba573d6000803e3d6000fd5b507f000000000000000000000000000000000000000000000000000000000000000073ffffffffffffffffffffffffffffffffffffffff166108fc83600301548361070591906113ec565b9081150290604051600060405180830381858888f19350505050158015610730573d6000803e3d6000fd5b5060018260050160146101000a81548160ff021916908315150217905550338260050160006101000a81548173ffffffffffffffffffffffffffffffffffffffff021916908373ffffffffffffffffffffffffffffffffffffffff1602179055504282600601819055508160010160009054906101000a900473ffffffffffffffffffffffffffffffffffffffff1673ffffffffffffffffffffffffffffffffffffffff166323b872dd303385600201546040518463ffffffff1660e01b81526004016107ff93929190611420565b600060405180830381600087803b15801561081957600080fd5b505af115801561082d573d6000803e3d6000fd5b505050503373ffffffffffffffffffffffffffffffffffffffff168260040160009054906101000a900473ffffffffffffffffffffffffffffffffffffffff1673ffffffffffffffffffffffffffffffffffffffff168360010160009054906101000a900473ffffffffffffffffffffffffffffffffffffffff1673ffffffffffffffffffffffffffffffffffffffff167f8b4c9c8a607d67b321582dd8461041b1dc2ceeca70c8b7f37f8e02095cf2e76d86866002015487600301546040516108f993929190611457565b60405180910390a4505061090b610c5f565b50565b610916610c10565b60008111610959576040517f08c379a0000000000000000000000000000000000000000000000000000000008152600401610950906114da565b60405180910390fd5b6001600081548092919061096c906114fa565b91905055508273ffffffffffffffffffffffffffffffffffffffff166323b872dd3330856040518463ffffffff1660e01b81526004016109ae93929190611420565b600060405180830381600087803b1580156109c857600080fd5b505af11580156109dc573d6000803e3d6000fd5b5050505060405180610100016040528060015481526020018473ffffffffffffffffffffffffffffffffffffffff1681526020018381526020018281526020013373ffffffffffffffffffffffffffffffffffffffff168152602001600073ffffffffffffffffffffffffffffffffffffffff16815260200160001515815260200160008152506002600060015481526020019081526020016000206000820151816000015560208201518160010160006101000a81548173ffffffffffffffffffffffffffffffffffffffff021916908373ffffffffffffffffffffffffffffffffffffffff160217905550604082015181600201556060820151816003015560808201518160040160006101000a81548173ffffffffffffffffffffffffffffffffffffffff021916908373ffffffffffffffffffffffffffffffffffffffff16021790555060a08201518160050160006101000a81548173ffffffffffffffffffffffffffffffffffffffff021916908373ffffffffffffffffffffffffffffffffffffffff16021790555060c08201518160050160146101000a81548160ff02191690831515021790555060e082015181600601559050503373ffffffffffffffffffffffffffffffffffffffff168373ffffffffffffffffffffffffffffffffffffffff167f655a0cf9c8db81512be9a76dc1c5ae5380b8816ce6ad659cd61b715e2999d59a6001548585604051610bfb93929190611457565b60405180910390a3610c0b610c5f565b505050565b600260005403610c55576040517f08c379a0000000000000000000000000000000000000000000000000000000008152600401610c4c9061158e565b60405180910390fd5b6002600081905550565b6001600081905550565b6000604051905090565b600080fd5b600080fd5b6000819050919050565b610c9081610c7d565b8114610c9b57600080fd5b50565b600081359050610cad81610c87565b92915050565b600060208284031215610cc957610cc8610c73565b5b6000610cd784828501610c9e565b91505092915050565b610ce981610c7d565b82525050565b600073ffffffffffffffffffffffffffffffffffffffff82169050919050565b6000610d1a82610cef565b9050919050565b610d2a81610d0f565b82525050565b60008115159050919050565b610d4581610d30565b82525050565b600081519050919050565b600082825260208201905092915050565b60005b83811015610d85578082015181840152602081019050610d6a565b60008484015250505050565b6000601f19601f8301169050919050565b6000610dad82610d4b565b610db78185610d56565b9350610dc7818560208601610d67565b610dd081610d91565b840191505092915050565b600061012082019050610df1600083018c610ce0565b610dfe602083018b610d21565b610e0b604083018a610ce0565b610e186060830189610ce0565b610e256080830188610d21565b610e3260a0830187610d21565b610e3f60c0830186610d3c565b610e4c60e0830185610ce0565b818103610100830152610e5f8184610da2565b90509a9950505050505050505050565b6000610e7a82610cef565b9050919050565b610e8a81610e6f565b82525050565b6000602082019050610ea56000830184610e81565b92915050565b6000602082019050610ec06000830184610ce0565b92915050565b6000819050919050565b6000610eeb610ee6610ee184610cef565b610ec6565b610cef565b9050919050565b6000610efd82610ed0565b9050919050565b6000610f0f82610ef2565b9050919050565b610f1f81610f04565b82525050565b600061010082019050610f3b600083018b610ce0565b610f48602083018a610f16565b610f556040830189610ce0565b610f626060830188610ce0565b610f6f6080830187610e81565b610f7c60a0830186610e81565b610f8960c0830185610d3c565b610f9660e0830184610ce0565b9998505050505050505050565b6000610fae82610d0f565b9050919050565b610fbe81610fa3565b8114610fc957600080fd5b50565b600081359050610fdb81610fb5565b92915050565b600080600060608486031215610ffa57610ff9610c73565b5b600061100886828701610fcc565b935050602061101986828701610c9e565b925050604061102a86828701610c9e565b9150509250925092565b7f4974656d20646f65736e27742065786973740000000000000000000000000000600082015250565b600061106a601283610d56565b915061107582611034565b602082019050919050565b600060208201905081810360008301526110998161105d565b9050919050565b600080fd5b600080fd5b7f4e487b7100000000000000000000000000000000000000000000000000000000600052604160045260246000fd5b6110e282610d91565b810181811067ffffffffffffffff82111715611101576111006110aa565b5b80604052505050565b6000611114610c69565b905061112082826110d9565b919050565b600067ffffffffffffffff8211156111405761113f6110aa565b5b61114982610d91565b9050602081019050919050565b600061116961116484611125565b61110a565b905082815260208101848484011115611185576111846110a5565b5b611190848285610d67565b509392505050565b600082601f8301126111ad576111ac6110a0565b5b81516111bd848260208601611156565b91505092915050565b6000602082840312156111dc576111db610c73565b5b600082015167ffffffffffffffff8111156111fa576111f9610c78565b5b61120684828501611198565b91505092915050565b7f4e487b7100000000000000000000000000000000000000000000000000000000600052601160045260246000fd5b600061124982610c7d565b915061125483610c7d565b925082820190508082111561126c5761126b61120f565b5b92915050565b600061127d82610c7d565b915061128883610c7d565b925082820261129681610c7d565b915082820484148315176112ad576112ac61120f565b5b5092915050565b7f4e487b7100000000000000000000000000000000000000000000000000000000600052601260045260246000fd5b60006112ee82610c7d565b91506112f983610c7d565b925082611309576113086112b4565b5b828204905092915050565b7f4e6f7420656e6f75676820657468657200000000000000000000000000000000600082015250565b600061134a601083610d56565b915061135582611314565b602082019050919050565b600060208201905081810360008301526113798161133d565b9050919050565b7f4974656d20616c726561647920736f6c64000000000000000000000000000000600082015250565b60006113b6601183610d56565b91506113c182611380565b602082019050919050565b600060208201905081810360008301526113e5816113a9565b9050919050565b60006113f782610c7d565b915061140283610c7d565b925082820390508181111561141a5761141961120f565b5b92915050565b60006060820190506114356000830186610d21565b6114426020830185610d21565b61144f6040830184610ce0565b949350505050565b600060608201905061146c6000830186610ce0565b6114796020830185610ce0565b6114866040830184610ce0565b949350505050565b7f5072696365206d7573742062652067726561746572207468616e207a65726f00600082015250565b60006114c4601f83610d56565b91506114cf8261148e565b602082019050919050565b600060208201905081810360008301526114f3816114b7565b9050919050565b600061150582610c7d565b91507fffffffffffffffffffffffffffffffffffffffffffffffffffffffffffffffff82036115375761153661120f565b5b600182019050919050565b7f5265656e7472616e637947756172643a207265656e7472616e742063616c6c00600082015250565b6000611578601f83610d56565b915061158382611542565b602082019050919050565b600060208201905081810360008301526115a78161156b565b905091905056fea2646970667358221220ff50f39f3ce68ac37d4d70fb4ecd502e51cef4b3c59abfb0940f4c537d3f62b564736f6c63430008130033",
  "linkReferences": {},
  "deployedLinkReferences": {},
  "immutableReferences": {
    "2934": [
      {
        "length": 32,
        "start": 982
      },
      {
        "length": 32,
        "start": 1725
      }
    ],
    "2936": [
      {
        "length": 32,
        "start": 1024
      },
      {
        "length": 32,
        "start": 1245
      }
    ]
  },
  "inputSourceName": "project/contracts/Marketplace.sol",
  "buildInfoId": "solc-0_8_19-fe552542ca930aec56f511b61ff61dff85b82928"
}